:04000000E0EF29F014
:10100000003738392F3435362A3132332D23303DED
:101010002B43616E277420646F206F70657261745A
:10102000696F6E0057656C636F6D6520546F204D5E
:10103000790043616C63756C61746F7200252E33A7
:101040006600696E66006E616E00256C6400256C3A
:0310500075000028
:10105400000E666E3EC069F03FC06AF040C06BF09F
:1010640041C06CF06CBE3BEF08F039EF08F04FEF75
:1010740008F0010E666E69C001F06AC002F06BC030
:1010840003F06CC004F05FEC2CF001C069F002C006
:101094006AF003C06BF004C06CF0000E686E000EC2
:1010A400676E9AC056F09BC057F06650D8B45DEF97
:1010B40008F05FEF08F073EF08F06650D8A465EF0E
:1010C40008F067EF08F06DEF08F0000E4C6E2B0E81
:1010D4004B6E71EF08F0000E4C6E2D0E4B6E4BC034
:1010E40066F069C001F06AC002F06BC003F06CC026
:1010F40004F0CCEC23F001040210D8A484EF08F02F
:1011040086EF08F0B7EF08F06650D8B48CEF08F01B
:101114008EEF08F097EF08F066C064F15606D8A089
:101124005706000E686E010E676E640E6724016E2A
:10113400010E6820026E420E036E100E046ECAEC9D
:101144002BF0FD0E5626FF0E57223CC011F03DC079
:1011540012F0640E136E010E146E56C015F057C0D3
:1011640016F0FDEC28F010EF0DF069C001F06AC034
:1011740002F06BC003F06CC004F0CCEC23F001501F
:101184000210D8A4C8EF08F0CAEF08F0E9EF08F09D
:101194006650D8B4D0EF08F0D2EF08F0DBEF08F0D7
:1011A40066C064F15606D8A05706000E686E010E9C
:1011B400676E640E6724016E010E6820026E460E8F
:1011C400036E100E046ECAEC2BF0A3EF08F0000EB1
:1011D4006D6E000E6E6E800E6F6E3F0E706E000EA2
:1011E400556E000E546E69C001F06AC002F06BC007
:1011F40003F06CC004F0000E056E000E066E000EC7
:10120400076E000E086EF7EC26F0D8B00CEF09F06C
:101214000EEF09F0E9EF09F01AEF09F058C06DF08C
:1012240059C06EF05AC06FF05BC070F0544A552A32
:101234006DC001F06EC002F06FC003F070C004F026
:10124400000E056E000E066E200E076E410E086E2F
:101254005BEC17F001C058F002C059F003C05AF01B
:1012640004C05BF05850695C016E59506A58026EB4
:101274005A506B58036E5B506C58046E14EC2AF091
:1012840004BE50EF09F004500310021009E1020EED
:10129400015CD8A050EF09F052EF09F010EF09F00B
:1012A40058C01AF059C01BF05AC01CF05BC01DF0A6
:1012B40069C01EF06AC01FF06BC020F06CC021F042
:1012C4004AEC23F0D8A069EF09F06BEF09F010EFB6
:1012D40009F06D50695C016E6E506A58026E6F5071
:1012E4006B58036E70506C58046E14EC2AF004BEF4
:1012F40089EF09F004500310021007E1020E015CAB
:10130400D8B087EF09F089EF09F0D0EF09F06DC08C
:1013140069F06EC06AF06FC06BF070C06CF0E9EFFA
:1013240009F06DC00FF06EC010F06FC011F070C006
:1013340012F0000E136E000E146E200E156E410E88
:10134400166E70EC19F00FC06DF010C06EF011C085
:101354006FF012C070F05406D8A055066D50695C49
:10136400016E6E506A58026E6F506B58036E705067
:101374006C58046E14EC2AF004BECEEF09F004504D
:101384000310021007E1020E015CD8B0CCEF09F0A3
:10139400CEEF09F0D0EF09F089EF09F069C01AF037
:1013A4006AC01BF06BC01CF06CC01DF06DC01EF059
:1013B4006EC01FF06FC020F070C021F04AEC23F023
:1013C400D8A0E7EF09F0E9EF09F093EF09F042C084
:1013D4004EF04EC04FF07EBEF2EF09F0F4EF09F08C
:1013E400FAEF09F07DC047F07EC048F0FEEF09F047
:1013F400000E486E060E476E47C052F048C053F0C8
:10140400524A532A660E4F18D8A40BEF0AF00DEF78
:101414000AF02DEF0AF055BE14EF0AF012EF0AF0AD
:1014240020EF0AF0000E6D6E000E6E6E800E6F6E71
:101434003F0E706E000E556E000E546E670E4E1801
:10144400D8B427EF0AF029EF0AF02DEF0AF0545030
:10145400522655505322000E5D6E000E5C6E69C01C
:101464005EF06AC05FF06BC060F06CC061F06DC08C
:1014740058F06EC059F06FC05AF070C05BF0BDEF09
:101484000AF05EC00FF05FC010F060C011F061C0E0
:1014940012F06DC013F06EC014F06FC015F070C080
:1014A40016F070EC19F00FC028F010C029F011C02C
:1014B4002AF012C02BF03DEC1BF028C062F029C0CA
:1014C40063F02AC064F02BC065F062C001F063C011
:1014D40002F064C003F065C004F0C7EC22F001C060
:1014E40050F002C051F05EC01AF05FC01BF060C043
:1014F4001CF061C01DF062C005F063C006F064C05A
:1015040007F065C008F06DC001F06EC002F06FC056
:1015140003F070C004F05BEC17F001C01EF002C0D1
:101524001FF003C020F004C021F042EC2BF01AC0DD
:101534005EF01BC05FF01CC060F01DC061F06DC0A8
:101544000FF06EC010F06FC011F070C012F0000EFA
:10155400136E000E146E200E156E410E166E70EC96
:1015640019F00FC06DF010C06EF011C06FF012C012
:1015740070F05C4A5D2A52505C5C5D50800A436E98
:101584005350800A4358D8A0CAEF0AF0CCEF0AF0AF
:1015940043EF0AF06DC001F06EC002F06FC003F0BB
:1015A40070C004F0000E056E000E066EA00E076EED
:1015B400400E086E5BEC17F001C062F002C063F0ED
:1015C40003C064F004C065F05EC01AF05FC01BF095
:1015D40060C01CF061C01DF062C01EF063C01FF04B
:1015E40064C020F065C021F04AEC23F0D8B0FDEFD0
:1015F4000AF0FFEF0AF009EF0BF0000E626E000E26
:10160400636E000E646E000E656E31EF0BF05EC00B
:1016140001F05FC002F060C003F061C004F062C07A
:1016240005F063C006F064C007F065C008F0F7EC8D
:1016340026F0D8A020EF0BF022EF0BF031EF0BF0E7
:1016440050B027EF0BF029EF0BF031EF0BF0000E49
:10165400626E000E636E000E646E000E656E69C0ED
:1016640001F06AC002F06BC003F06CC004F062C009
:1016740005F063C006F064C007F065C008F0FBEC39
:1016840014F001C05EF002C05FF003C060F004C05B
:1016940061F05EC01AF05FC01BF060C01CF061C056
:1016A4001DF0000E056E000E066E200E076E410E34
:1016B400086E58C001F059C002F05AC003F05BC074
:1016C40004F05BEC17F001C01EF002C01FF003C071
:1016D40020F004C021F04AEC23F0D8A074EF0BF002
:1016E40076EF0BF09DEF0BF0544A552A58C001F0E9
:1016F40059C002F05AC003F05BC004F0000E056E3E
:10170400000E066E200E076E410E086E5BEC17F09D
:1017140001C058F002C059F003C05AF004C05BF095
:10172400660E4F18D8A499EF0BF09BEF0BF09DEFCA
:101734000BF0524A532A58C06DF059C06EF05AC08B
:101744006FF05BC070F054C045F055C046F0000E19
:101754004D6E000E4A6E000E496E000E5D6E000E58
:101764005C6E97EF0CF05EC00FF05FC010F060C0CD
:1017740011F061C012F06DC013F06EC014F06FC0B0
:1017840015F070C016F070EC19F00FC028F010C0FE
:1017940029F011C02AF012C02BF03DEC1BF028C038
:1017A40062F029C063F02AC064F02BC065F062C007
:1017B40001F063C002F064C003F065C004F0C7EC3C
:1017C40022F002BEF1EF0BF0025007E10A0E015CB9
:1017D400D8B0EFEF0BF0F1EF0BF001EF0CF062C0BB
:1017E40001F063C002F064C003F065C004F0C7EC0C
:1017F40022F001C050F002C051F005EF0CF0000ED1
:10180400516E090E506E4D50D8A40BEF0CF00DEF35
:101814000CF035EF0CF046BE14EF0CF012EF0CF0A8
:1018240035EF0CF0640E6724D96E010E6820DA6E71
:101834002E0EDF6E674A682A5606D8A05706010E98
:101844004D6E35EF0CF0640E6724D96E010E6820DE
:10185400DA6E300EDF6E674A682A5606D8A057063D
:101864004906D8A04A0649504A10D8A43CEF0CF0C7
:101874003EEF0CF025EF0CF0640E6724D96E010ED8
:101884006820DA6E5050300FDF6E674A682A5606B9
:10189400D8A057065EC01AF05FC01BF060C01CF0F1
:1018A40061C01DF062C005F063C006F064C007F0BB
:1018B40065C008F06DC001F06EC002F06FC003F0A7
:1018C40070C004F05BEC17F001C01EF002C01FF002
:1018D40003C020F004C021F042EC2BF01AC05EF0EB
:1018E4001BC05FF01CC060F01DC061F06DC00FF044
:1018F4006EC010F06FC011F070C012F0000E136EC5
:10190400000E146E200E156E410E166E70EC19F05A
:101914000FC06DF010C06EF011C06FF012C070F007
:101924004506D8A046065C4A5D2A52505C5C5D5070
:10193400800A436E5350800A4358D8B0A4EF0CF089
:10194400A6EF0CF0B4EF0CF068BEB2EF0CF06850E8
:1019540009E14B0E675CD8A0B2EF0CF0B4EF0CF0C9
:10196400B5EF0BF0000E5D6E4F0E5C6E640E5C24E2
:10197400D96E010E5D20DA6EDF6A640E436E010ECD
:10198400446E6750435E6850445A5C504324016E71
:101994005D504420026E640E036E010E046E67C037
:1019A40005F068C006F0F7EC2AF067505C5C676EDF
:1019B40068505D58686E6650D8A4E3EF0CF0E6EF0B
:1019C4000CF0010EE7EF0CF0000E5C6E5D6A6650E1
:1019D400D8B4EFEF0CF0F1EF0CF0FCEF0CF067066D
:1019E400D8A06806640E6724D96E010E6820DA6EEA
:1019F40066C0DFFF5C50565E5D50575A3CC011F024
:101A04003DC012F0640E6724136E010E6820146E3C
:101A140056C015F057C016F0FDEC28F01200000E69
:101A2400316E20EE3CF0070EDE6AE806FDE219C0D6
:101A340044F01AC045F01EBE2BEF0DF01E5007E116
:101A4400250E1D5CD8B029EF0DF02BEF0DF034EF0F
:101A54000DF01D041E10D8A432EF0DF034EF0DF07C
:101A64003BEF0DF0000E0001996F160E986F97EF83
:101A74000FF044504510D8B442EF0DF044EF0DF090
:101A840097EF0FF044C0D9FF45C0DAFFDF50D8A468
:101A94004EEF0DF050EF0DF052EF0DF097EF0FF009
:101AA40044C0D9FF45C0DAFFDF50466E62EF0DF047
:101AB400444A452A44C0D9FF45C0DAFFDF50466E88
:101AC400200E4618D8B469EF0DF06BEF0DF05AEF05
:101AD4000DF0F70E4624216E226AFF0E22222250B8
:101AE40009E1050E215CD8A07AEF0DF07CEF0DF032
:101AF4005AEF0DF0000E3A6E000E3B6E2D0E461896
:101B0400D8A487EF0DF089EF0DF095EF0DF0010EDD
:101B14003A6E444A452A44C0D9FF45C0DAFFDF5033
:101B2400466EA0EF0DF02B0E4618D8A49CEF0DF0D6
:101B34009EEF0DF0A0EF0DF08BEF0DF0300E461878
:101B4400D8A4A7EF0DF0A9EF0DF02DEF0EF0444A45
:101B5400452A44C0D9FF45C0DAFFDF50466E1D5008
:101B64001E10D8B4B8EF0DF0BAEF0DF0C4EF0DF0BD
:101B7400100E1D181E10D8A4C2EF0DF0C4EF0DF006
:101B84001EEF0EF0780E4618D8B4CBEF0DF0CDEF63
:101B94000DF0D6EF0DF0580E4618D8A4D4EF0DF082
:101BA400D6EF0DF01EEF0EF0000E1E6E100E1D6E21
:101BB400444A452A44C0D9FF45C0DAFFDF50466E87
:101BC4004650216E226A200E2112000E22129F0E10
:101BD4002124236EFF0E2220246E245007E11A0EC6
:101BE400235CD8B0F8EF0DF0FAEF0DF009EF0EF02A
:101BF40046C005F0066A27EC2CF0C90E0526100E27
:101C0400056007EF0EF009EF0EF017EF0EF046C077
:101C140007F0086A47EC2AF007500810D8A415EF1B
:101C24000EF017EF0EF02DEF0EF0010E316E44069C
:101C3400D8A0450697EF0FF0010E316E1D501E100F
:101C4400D8A427EF0EF029EF0EF02DEF0EF0000EC2
:101C54001E6E080E1D6E1D501E10D8A434EF0EF01B
:101C640036EF0EF03AEF0EF0000E1E6E0A0E1D6EE9
:101C74001F50D8B440EF0EF042EF0EF06EEF0EF0AE
:101C84003A50D8A448EF0EF04AEF0EF05CEF0EF095
:101C9400FF0E326EFF0E336EFF0E346EFF0E356E86
:101CA400FF0E366EFF0E376EFF0E386E7F0E396EE6
:101CB40076EF0EF0000E326E000E336E000E346EB0
:101CC400000E356E000E366E000E376E000E386E46
:101CD400800E396E76EF0EF03268336834683568FA
:101CE40036683768386839683CC029F03DC02AF046
:101CF4003EC02BF03FC02CF040C02DF041C02EF070
:101D040042C02FF043C030F04650216E226A200EAC
:101D14002112000E22129F0E2124236EFF0E222078
:101D2400246E245007E11A0E235CD8B09CEF0EF009
:101D34009EEF0EF0A8EF0EF046C005F0066A27EC01
:101D44002CF00550C90F466EBBEF0EF0D00E4624A2
:101D5400216E226AFF0E2222225007E10A0E215C24
:101D6400D8B0B7EF0EF0B9EF0EF077EF0FF0300EFA
:101D7400465E4650216E226A1D50215C2250800A24
:101D8400236E1E50800A2358D8A0CBEF0EF0CDEF5F
:101D94000EF0CFEF0EF077EF0FF03B50D8A4D5EF55
:101DA4000EF0D7EF0EF06BEF0FF01DC001F01EC068
:101DB40002F0000E02BEFF0E036E046E056E066E88
:101DC400076E086E3CC009F03DC00AF03EC00BF03F
:101DD4003FC00CF040C00DF041C00EF042C00FF007
:101DE40043C010F09EEC27F001C021F002C022F0A5
:101DF40003C023F004C024F005C025F006C026F07B
:101E040007C027F008C028F0465021243C6E000E7D
:101E140022203D6E000E23203E6E000E24203F6ED5
:101E2400000E2520406E000E2620416E000E272055
:101E3400426E000E2820436E29503C5C2A503D58C7
:101E44002B503E582C503F582D5040582E5041583E
:101E54002F50425830504358D8A033EF0FF035EF8D
:101E64000FF054EF0FF01F50D8B43BEF0FF03DEFDD
:101E74000FF06BEF0FF03C50325C3D5033583E5046
:101E840034583F50355840503658415037584250D6
:101E9400385843503958D8B052EF0FF054EF0FF080
:101EA4006BEF0FF032C03CF033C03DF034C03EF075
:101EB40035C03FF036C040F037C041F038C042F082
:101EC40039C043F0000E0001996F220E986F010E85
:101ED4003B6E444A452A44C0D9FF45C0DAFFDF506F
:101EE400466E010E316E76EF0EF03B50D8A47DEFB6
:101EF4000FF07FEF0FF097EF0FF03A50D8B485EF63
:101F04000FF087EF0FF097EF0FF0431E421E411EB4
:101F1400401E3F1E3E1E3D1E3C6C000E3D223E22D6
:101F24003F2240224122422243221B501C10D8B49B
:101F34009EEF0FF0A0EF0FF0B4EF0FF03150D8A4E4
:101F4400A6EF0FF0A8EF0FF0ACEF0FF019C044F0BC
:101F54001AC045F01BC0D9FF1CC0DAFF44C0DEFF25
:101F640045C0DDFF3CC019F03DC01AF03EC01BF077
:101F74003FC01CF040C01DF041C01EF042C01FF025
:101F840043C020F01200E2EC2CF0000E016E010EB2
:101F9400026E000E046E000E036E000E066E640EDA
:101FA400056E9EEC1FF0A80E016E000E026E000E70
:101FB400046E000E036E000E066E0B0E056E9EEC94
:101FC4001FF0B40E016E010E026E000E046E000EC0
:101FD400036E000E066E140E056E9EEC1FF0F50ED9
:101FE4001A6E000E1B6E010E1C6E040E1D6E240E66
:101FF4001E6E100E1F6E77EC2AF00001A06FF50E16
:102004001A6E000E1B6E020E1C6E050E1D6E320E35
:102014001E6E100E1F6E77EC2AF00001A06FF50EF5
:10202400206E000E216E020E226E100E236ED20E52
:10203400246E010E256E000E266EBCEC28F0000105
:10204400A06F0B0E0001D96F260ED86F5D0EE82E1F
:10205400FED7D82FFCD7D92FFAD700D0F50E0F6EA4
:10206400000E106E010E116EEDEC27F00001A06F52
:10207400DA0E0B6E010E0C6E7F0E0D6E000E0E6EE0
:102084002AEC1DF07F50D8B44AEF10F04CEF10F05A
:102094003AEF10F03D0E7F18D8A453EF10F055EF2F
:1020A40010F074EF11F0A80E476E000E486EB30ED8
:1020B400496E000E4A6E000E4C6E0A0E4B6EA9EC71
:1020C4002BF047C0D8F048C0D9F049C0DAF04AC074
:1020D400DBF04BC0DCF04CC0DDF04DC0DEF04EC098
:1020E400DFF0D8C090F0D9C091F0DAC092F0DBC034
:1020F40093F0A80E016E000E026E000E046E000E28
:10210400036E000E066E0B0E056E9EEC1FF001EFC3
:1021140011F0905194258C6F915195218D6F9251AE
:1021240096218E6F935197218F6F1FEF11F090516D
:10213400945D8C6F915195598D6F925196598E6F14
:10214400935197598F6F1FEF11F094C001F095C010
:1021540002F096C003F097C004F0010E04EC1EF0E8
:1021640001C00FF002C010F003C011F004C012F05F
:1021740090C001F091C002F092C003F093C004F04B
:10218400010E04EC1EF001C013F002C014F003C0F1
:1021940015F004C016F070EC19F00FC088F010C0F0
:1021A40089F011C08AF012C08BF01FEF11F094C0B7
:1021B40001F095C002F096C003F097C004F090C0FF
:1021C40005F091C006F092C007F093C008F0ABECA4
:1021D40029F001C08CF002C08DF003C08EF004C061
:1021E4008FF01FEF11F0B40E016E010E026E110E8E
:1021F400036E100E046ECAEC2BF01FEF11F00001F9
:10220400F451D86FD96BD951000AD8B40CEF11F03E
:10221400F5EF10F0D8512A0AD8B4D9EF10F0010A1A
:10222400D8B48BEF10F0060AD8B499EF10F0020A74
:10223400D8B4A7EF10F0F5EF10F0B40E016E010E54
:10224400026E110E036E100E046E73EC29F0015031
:102254000210D8A430EF11F032EF11F042EF11F078
:10226400F50E1A6E000E1B6E030E1C6E010E1D6E13
:10227400B40E1E6E010E1F6E77EC2AF060EF12F0A2
:102284002F0E0001F419D8A44AEF11F04CEF11F00D
:1022940060EF11F0B40EC26F010EC36F3D0EC46F38
:1022A400100EC56F88C0C6F089C0C7F08AC0C8F0D8
:1022B4008BC0C9F0A7EC2AF032EF11F0B40EC26F54
:1022C400010EC36F4A0EC46F100EC56F8CC0C6F0EA
:1022D4008DC0C7F08EC0C8F08FC0C9F0A7EC2AF03B
:1022E40032EF11F0230E7F18D8A47BEF11F07DEFAD
:1022F40011F0D2EF11F0F50E0F6E000E106E010EFC
:10230400116EEDEC27F00001A06F000E016E010EBE
:10231400026E000E046E000E036E000E066E640E56
:10232400056E9EEC1FF0A80E016E000E026E000EEC
:10233400046E000E036E000E066E0B0E056E9EEC10
:102344001FF0B40E016E010E026E000E046E000E3C
:10235400036E000E066E140E056E9EEC1FF0000E4A
:1023640000018C6F000E8D6F000E8E6F000E8F6F4C
:10237400000E946F000E956F000E966F000E976F0F
:10238400000E906F000E916F000E926F000E936F0F
:10239400000E9F6F000E9E6F000E9D6F60EF12F097
:1023A4002B0E7F18D8B4D9EF11F0DBEF11F0F6EF54
:1023B40011F02A0E7F18D8B4E2EF11F0E4EF11F017
:1023C400F6EF11F02F0E7F18D8B4EBEF11F0EDEF0C
:1023D40011F0F6EF11F02D0E7F18D8A4F4EF11F0E0
:1023E400F6EF11F03AEF12F07FC0F4F0A80E476E4A
:1023F400000E486EB30E496E000E4A6E000E4C6E0F
:102404000A0E4B6EA9EC2BF047C0D8F048C0D9F0A7
:1024140049C0DAF04AC0DBF04BC0DCF04CC0DDF060
:102424004DC0DEF04EC0DFF0D8C094F0D9C095F0B6
:10243400DAC096F0DBC097F0A80E016E000E026EB3
:10244400000E046E000E036E000E066E0B0E056E7B
:102454009EEC1FF0010E00019D6F000E9F25D96EAA
:10246400DA6A010EDA227FC0DFFF9F2B60EF12F0E1
:10247400000E00019F25D96EDA6A010EDA227FC0B0
:10248400DFFF9D51D8A449EF12F04BEF12F055EF46
:1024940012F0A80E9F25D96EDA6A000EDA227FC0E8
:1024A400DFFF37EF12F0A80E9E25D96EDA6A000E10
:1024B400DA227FC0DFFF9E2B37EF12F0F50E1A6E83
:1024C400000E1B6E010E1C6E010E1D6E000E1E6EA4
:1024D400010E1F6E77EC2AF00001A06F000E7F6ED4
:1024E4003AEF10F000EF00F073C0D9FF74C0DAFFC8
:1024F400DECFF6FFDDCFF7FF0800F550250AD8A49C
:1025040086EF12F088EF12F0E6EF14F073C0D9FFF3
:1025140074C0DAFFDE2A000EDD22000E00019B6F7C
:10252400000E9A6F9AC09CF07D687E6873C0D9FFD4
:1025340074C0DAFFDECFF6FFDDCFF7FF0800F550F9
:102544002E0AD8A4A8EF12F0AAEF12F0BFEF12F0EF
:1025540073C0D9FF74C0DAFFDE2A000EDD2273C017
:1025640007F074C008F075C009F076C00AF026ECD4
:1025740025F007C07DF008C07EF073C0D9FF74C099
:10258400DAFFDECFBAF0DDCFBBF0BAC0F6FFBBC0D6
:10259400F7FF0800F5CFB9F0DCEF12F0BA4BBB2B14
:1025A400FAEF12F0690EB96FFAEF12F0000EB96F7C
:1025B400FAEF12F00001B951776E786A7850000A88
:1025C400D8B4E7EF12F0D8EF12F07750640AD8B419
:1025D400D4EF12F00D0AD8B4D4EF12F0050AD8B42F
:1025E400D0EF12F0190AD8B4D4EF12F0D8EF12F0E9
:1025F400BAC0F6FFBBC0F7FF0800F550640AD8B4B0
:1026040006EF13F008EF13F04DEF13F0BAC0F6FF26
:10261400BBC0F7FF0800F550690AD8A414EF13F003
:1026240016EF13F080EF13F04DEF13F075C0D9FFE0
:1026340076C0DAFFDFCF77F0020EDE26DFCF78F048
:10264400000EDD2277C0D9FF78C0DAFFDECFB5F007
:10265400DDCFB6F0000EB6BFFF0EB76FB86F62EFF6
:1026640013F075C0D9FF76C0DAFFDFCF77F0040E20
:10267400DE26DFCF78F0000EDD2277C0D9FF78C0E8
:10268400DAFFDECFB5F0DECFB6F0DECFB7F0DECFC7
:10269400B8F062EF13F0B951776E786A7850000A97
:1026A400D8B457EF13F062EF13F07750690AD8B437
:1026B40018EF13F0050AD8B433EF13F062EF13F0F8
:1026C400010EBA25776E000EBB21786E73C0D9FF58
:1026D40074C0DAFF77C0DEFF78C0DDFF71C01CF084
:1026E40072C01DF0B5C01EF0B6C01FF0B7C020F018
:1026F400B8C021F046EC1CF0FAEF14F0BAC0F6FFB3
:10270400BBC0F7FF0800F550750AD8A48CEF13F08E
:102714008EEF13F011EF14F0C6EF13F075C0D9FF6C
:1027240076C0DAFFDFCF77F0020EDE26DFCF78F057
:10273400000EDD2277C0D9FF78C0DAFFDECF79F052
:10274400DDCF7AF079C0B5F07AC0B6F0B76BB86B6C
:10275400DBEF13F075C0D9FF76C0DAFFDFCF77F077
:10276400040EDE26DFCF78F0000EDD2277C0D9FF1D
:1027740078C0DAFFDECFB5F0DECFB6F0DECFB7F04B
:10278400DECFB8F0DBEF13F0B951776E786A78508A
:10279400000AD8B4D0EF13F0DBEF13F07750690AD6
:1027A400D8B490EF13F0050AD8B4ACEF13F0DBEF14
:1027B40013F0010EBA25776E000EBB21786E73C03C
:1027C400D9FF74C0DAFF77C0DEFF78C0DDFFFBEF0E
:1027D40013F071C01CF072C01DF0B5C01EF0B6C07D
:1027E4001FF0B7C020F0B8C021F0B3EC21F0FAEF2D
:1027F40014F0BAC0F6FFBBC0F7FF0800F550776EBF
:10280400786A7850000AD8B40AEF14F011EF14F083
:102814007750750AD8B4EBEF13F011EF14F073C0CE
:10282400D9FF74C0DAFFDECFBAF0DDCFBBF0BAC097
:10283400F6FFBBC0F7FF0800F5CFB9F02EEF14F098
:10284400BA4BBB2B47EF14F06C0EB96F47EF14F083
:10285400000EB96F47EF14F0B951776E786A78506B
:10286400000AD8B438EF14F02AEF14F077504C0A69
:10287400D8B422EF14F02A0AD8B426EF14F00A0AC6
:10288400D8B422EF14F02AEF14F0BAC0F6FFBBC09C
:10289400F7FF0800F550660AD8A453EF14F055EF7B
:1028A40014F0DDEF14F08BEF14F075C0D9FF76C08F
:1028B400DAFFDFCF77F0040EDE26DFCF78F0000EEC
:1028C400DD2277C0D9FF78C0DAFFDECFB5F0DECFE6
:1028D400B6F0DECFB7F0DECFB8F0A0EF14F075C0DD
:1028E400D9FF76C0DAFFDFCF77F0040EDE26DFCF24
:1028F40078F0000EDD2277C0D9FF78C0DAFFDECF92
:10290400B5F0DECFB6F0DECFB7F0DECFB8F0A0EF93
:1029140014F0B951776E786A7850000AD8B495EFFC
:1029240014F0A0EF14F077504C0AD8B471EF14F0FF
:10293400200AD8B457EF14F0A0EF14F0010EBA2512
:10294400776E000EBB21786E73C0D9FF74C0DAFFB6
:1029540077C0DEFF78C0DDFFC7EF14F071C03CF034
:1029640072C03DF0B5C03EF0B6C03FF0B7C040F015
:10297400B8C041F0BAC0F6FFBBC0F7FF0800F5CFFE
:1029840042F02AEC08F0FAEF14F0BAC0F6FFBBC02C
:10299400F7FF0800F550776E786A7850000AD8B4CB
:1029A400D6EF14F0DDEF14F07750660AD8B4B0EF28
:1029B40014F0DDEF14F073C0D9FF74C0DAFFDE2A1F
:1029C400000EDD22FAEF14F073C0D9FF74C0DAFFF1
:1029D400DECFF6FFDDCFF7FF0800F550016E026A87
:1029E40071C003F072C004F0C1EC24F0DDEF14F008
:1029F40012000450800B0D6E045004240F6E03AEBD
:102A040006EF15F008EF15F009EF15F00F800F50E1
:102A1400D8B40FEF15F011EF15F026EF15F00F28CD
:102A2400D8A417EF15F019EF15F021EF15F0000EEB
:102A3400016E000E026E000E036E000E046E038E15
:102A4400000E046E2EEF15F0000E016E000E026EE5
:102A5400000E036E000E046E0850800B0E6E0D50B7
:102A64000E18D8B438EF15F03AEF15F03BEF15F027
:102A74000D8C085008240E6E07AE43EF15F045EF99
:102A840015F046EF15F00E800E50D8B44CEF15F04B
:102A94004EEF15F063EF15F00E28D8A454EF15F09F
:102AA40056EF15F05EEF15F0000E056E000E066E83
:102AB400000E076E000E086E078E000E086E6BEF98
:102AC40015F0000E056E000E066E000E076E000E69
:102AD400086E0F500E5CD8B072EF15F074EF15F05D
:102AE4009BEF15F00DAC79EF15F07BEF15F07DEF52
:102AF40015F0800E0D1A0FC010F00EC00FF010C0AC
:102B04000EF001C010F005C001F010C005F002C0C5
:102B140010F006C002F010C006F003C010F007C0A9
:102B240003F010C007F004C010F008C004F010C097
:102B340008F0000E106E0F500EC009F00A6A095E0C
:102B4400000E0A5A0ABEB0EF15F00A5009E11A0E37
:102B5400095CD8A0B0EF15F0B2EF15F0E9EF15F06D
:102B64000150021003100410D8A4BBEF15F0BEEFFF
:102B740015F0010EBFEF15F0000E106E000E016E81
:102B8400000E026E000E036E000E046E0EC00FF0F7
:102B9400F2EF15F010A0D1EF15F0D3EF15F0D9EF47
:102BA40015F0D89010300109106EDBEF15F0D890B5
:102BB400103201A0E0EF15F0E2EF15F0E3EF15F0AD
:102BC400108E043404320332023201320F2A0E50C2
:102BD4000F5CD8A0F0EF15F0F2EF15F0CCEF15F084
:102BE4000DBCF7EF15F0F9EF15F039EF16F00F50B3
:102BF400D8A4FFEF15F001EF16F00BEF16F0000E5E
:102C0400016E000E026E000E036E000E046E5AEF8B
:102C140017F00550012606500222075003220850DF
:102C2400042204A018EF16F01AEF16F0C6EF16F0FF
:102C340010A01FEF16F021EF16F027EF16F0D89032
:102C440010300109106E29EF16F0D890103201A04F
:102C54002EEF16F030EF16F031EF16F0108E04342C
:102C640004320332023201320F2AC6EF16F0055045
:102C7400015C06500258075003580450800A096E3C
:102C84000850800A0958D8B04AEF16F04CEF16F0F5
:102C940077EF16F00150055C096E025006580A6E73
:102CA400035007580B6E045008580C6EFF0E09248D
:102CB400016EFF0E0A20026EFF0E0B20036EFF0E44
:102CC4000C20046E800E0D1A106C1050D8A46DEFF9
:102CD40016F06FEF16F07FEF16F0010E0126000ECE
:102CE4000222032204227FEF16F00550015E0650F3
:102CF400025A0750035A0850045A01500210031094
:102D04000410D8A488EF16F08AEF16F0BFEF16F07F
:102D14001050D8A490EF16F092EF16F0BFEF16F013
:102D2400000E016E000E026E000E036E000E046EA5
:102D34005AEF17F0D890013602360336043610AE37
:102D4400A6EF16F0A8EF16F0A9EF16F0018010A078
:102D5400AEEF16F0B0EF16F0B4EF16F0D8801036E0
:102D6400B6EF16F0D89010360F50D8B4BCEF16F06A
:102D7400BEEF16F0BFEF16F00F0603AEC4EF16F069
:102D8400C6EF16F09CEF16F0000E0E6E10AECDEFEF
:102D940016F0CFEF16F0E7EF16F010C009F07F0E33
:102DA4000916D8B4D8EF16F0DAEF16F0DEEF16F005
:102DB400010E0E6EE7EF16F001A0E3EF16F0E5EF5B
:102DC40016F0E7EF16F0DAEF16F00E50D8B4EDEF88
:102DD40016F0EFEF16F01AEF17F0010E0126000EB1
:102DE40002220322042204A0FAEF16F0FCEF16F0EC
:102DF4001AEF17F001C009F002C00AF003C00BF08B
:102E040004C00CF00C340C320B320A32093209C003
:102E140001F00AC002F00BC003F00CC004F00F284C
:102E2400D8B417EF17F019EF17F01AEF17F00F2AAD
:102E34000F28D8B420EF17F022EF17F02AEF17F07D
:102E44000F50D8A428EF17F02AEF17F03CEF17F033
:102E5400000E016E000E026E000E036E000E046E74
:102E64000F50D8A438EF17F03AEF17F03CEF17F0F3
:102E7400000E0D6E0FA041EF17F043EF17F046EF71
:102E840017F0038E47EF17F0039ED8900F30046EAF
:102E94000DAE4FEF17F051EF17F052EF17F0048E0D
:102EA40001C001F002C002F003C003F004C004F04A
:102EB40012000450800B0D6E04500424136E03AEF4
:102EC40066EF17F068EF17F069EF17F013801350EF
:102ED400D8B46FEF17F071EF17F084EF17F01328E1
:102EE400D8A477EF17F079EF17F081EF17F0000E01
:102EF400016E000E026E000E036E000E046E038E51
:102F04008CEF17F0000E016E000E026E000E036EC1
:102F1400000E046E0850800B0D1A08500824126E1F
:102F240007AE97EF17F099EF17F09AEF17F01280AA
:102F34001250D8B4A0EF17F0A2EF17F0B5EF17F0C6
:102F44001228D8A4A8EF17F0AAEF17F0B2EF17F0E1
:102F5400000E056E000E066E000E076E000E086E63
:102F6400078EBDEF17F0000E056E000E066E000E04
:102F7400076E000E086E1250D8B4C3EF17F0C5EFF9
:102F840017F0CDEF17F01350D8A4CBEF17F0CDEF17
:102F940017F0D7EF17F0000E016E000E026E000E50
:102FA400036E000E046E6FEF19F007500102F3CFA9
:102FB40018F0F4CF19F018500E6E0F6A106A116AE7
:102FC4001950146E156A166A176A06500202F3CF76
:102FD40018F0F4CF19F018500E26000E0F2210220C
:102FE400112219501426000E1522162217220550FC
:102FF4000302F3CF18F0F4CF19F018500E26000E88
:103004000F221022112219501426000E1522162206
:10301400172210C011F00FC010F00EC00FF00E6A8E
:1030240005500202F3CF18F0F4CF19F018500E2611
:1030340019500F22000E1022000E11220650010218
:10304400F3CF18F0F4CF19F018500E2619500F22B0
:10305400000E1022000E112210C011F00FC010F04B
:103064000EC00FF00E6A05500102F3CF18F0F4CF32
:1030740019F018500E2619500F22000E1022000EBF
:10308400112207500202F3CF18F0F4CF19F01850B0
:10309400142619501522000E1622000E172206506F
:1030A4000302F3CF18F0F4CF19F018501426195076
:1030B4001522000E1622000E172207500302F3CF2A
:1030C40018F0F4CF19F01850096E19500A6E0B6AF3
:1030D4000C6A0BC00CF00AC00BF009C00AF0096AB4
:1030E400095014260A5015220B5016220C50172290
:1030F4000EC009F00FC00AF010C00BF011C00CF0A4
:10310400190E8AEF18F0D8900C320B320A320932B9
:10311400E82E85EF18F0095014260A5015220B509A
:1031240016220C50172210C011F00FC010F00EC060
:103134000FF00E6A125013C009F00A6A0926000E35
:103144000A22820E0924186EFF0E0A20196EC0EF9F
:1031540018F0D890143615361636173611AEB5EF6A
:1031640018F0B7EF18F0B8EF18F01480D8900E36B6
:103174000F36103611361806D8A0190616AEC5EF4C
:1031840018F0C7EF18F0ABEF18F0000E126E11AE86
:10319400CEEF18F0D0EF18F0F4EF18F0FF0E0E1485
:1031A400096EFF0E0F140A6EFF0E10140B6E7F0EC5
:1031B40011140C6E09500A100B100C10D8B4E5EF62
:1031C40018F0E7EF18F0EBEF18F0010E126EF4EFC1
:1031D40018F014A0F0EF18F0F2EF18F0F4EF18F074
:1031E400E7EF18F01250D8B4FAEF18F0FCEF18F02B
:1031F40020EF19F0010E1426000E152216221722B4
:1032040017A007EF19F009EF19F020EF19F014C017
:1032140009F015C00AF016C00BF017C00CF00C34FE
:103224000C320B320A32093209C014F00AC015F00C
:103234000BC016F00CC017F0184A192A19BE2BEF50
:1032440019F0195008E11828D8A02BEF19F02DEF28
:1032540019F037EF19F0000E146E000E156E800E83
:10326400166E7F0E176E65EF19F019BE44EF19F054
:10327400195006E11804D8B042EF19F044EF19F0E0
:1032840050EF19F0000E146E000E156E000E166E3F
:10329400000E176E000E0D6E65EF19F018C013F0D6
:1032A400FF0E1416FF0E15167F0E1616000E1716B7
:1032B40013A05FEF19F061EF19F062EF19F0168EA9
:1032C400D8901330176E0D50171214C001F015C0AA
:1032D40002F016C003F017C004F012001250800B65
:1032E4001F6E12501224266E11AE7BEF19F07DEF83
:1032F40019F07EEF19F026802650D8B484EF19F027
:1033040086EF19F09BEF19F02628D8A48CEF19F05A
:103314008EEF19F096EF19F0000E0F6E000E106E7E
:10332400000E116E000E126E118E000E126EA3EFBF
:1033340019F0000E0F6E000E106E000E116E000ECE
:10334400126E1650800B1F1A16501624276E15AED7
:10335400AEEF19F0B0EF19F0B1EF19F02780275054
:10336400D8B4B7EF19F0B9EF19F0CEEF19F0272858
:10337400D8A4BFEF19F0C1EF19F0C9EF19F0000E8E
:10338400136E000E146E000E156E000E166E158E62
:10339400000E166ED6EF19F0000E136E000E146EAA
:1033A400000E156E000E166E135014101510161024
:1033B400D8A4DFEF19F0E1EF19F0F9EF19F0000EDE
:1033C4000F6E000E106E000E116E000E126E800E47
:1033D40011127F0E12121F5012120FC00FF010C0E4
:1033E40010F011C011F012C012F03CEF1BF0265087
:1033F400D8A4FFEF19F001EF1AF00BEF1AF0000E4A
:103404000F6E000E106E000E116E000E126E3CEF69
:103414001BF0275026C017F0186A175E000E185AC2
:103424007F0E1724206E000E1820216E0FC01BF093
:1034340010C01CF011C01DF012C01EF0000E0F6E63
:10344400000E106E000E116E000E126E000E226E33
:10345400000E236E000E246E000E256E000E276EE5
:103464006CEF1AF02750D8B43AEF1AF03CEF1AF088
:1034740053EF1AF0D8901B361C361D361E36D890E2
:103484000F3610361136123625AE4BEF1AF04DEFCB
:103494001AF04EEF1AF00F80D890223623362436D5
:1034A400253613501B5C14501C5815501D581650CB
:1034B4001E58D8A060EF1AF062EF1AF06BEF1AF002
:1034C400258C13501B5E14501C5A15501D5A16504F
:1034D4001E5A272A190E276472EF1AF074EF1AF095
:1034E40034EF1AF01B501C101D101E10D8B47DEFC1
:1034F4001AF07FEF1AF097EF1AF0228097EF1AF084
:10350400D8900F3610361136123625AE8CEF1AF0DD
:103514008EEF1AF08FEF1AF00F80D89022362336F0
:10352400243625362006D8A0210611AE9CEF1AF0C9
:103534009EEF1AF082EF1AF0000E276E25AEA5EF6B
:103544001AF0A7EF1AF0CBEF1AF0FF0E2214176E41
:10355400FF0E2314186EFF0E2414196E7F0E25140B
:103564001A6E1750181019101A10D8B4BCEF1AF0AC
:10357400BEEF1AF0C2EF1AF0010E276ECBEF1AF06D
:103584000FA0C7EF1AF0C9EF1AF0CBEF1AF0BEEF95
:103594001AF02750D8B4D1EF1AF0D3EF1AF0F7EF9E
:1035A4001AF0010E0F26000E10221122122212A070
:1035B400DEEF1AF0E0EF1AF0F7EF1AF00FC017F091
:1035C40010C018F011C019F012C01AF01A341A32CF
:1035D40019321832173217C00FF018C010F019C082
:1035E40011F01AC012F0204A212A21BE02EF1BF06A
:1035F400215008E12028D8A002EF1BF004EF1BF0B3
:103604000FEF1BF0000E216E2068000E0F6E000EEF
:10361400106E000E116E000E126E21BE1CEF1BF018
:10362400215006E12004D8B01AEF1BF01CEF1BF068
:103634002AEF1BF0000E216E000E206E000E0F6E9E
:10364400000E106E000E116E000E126E000E1F6E34
:1036540020C026F026A031EF1BF033EF1BF036EF2D
:103664001BF0118E37EF1BF0119ED8902630126E8E
:10367400EDEF19F0120080C038F081C039F082C03B
:103684003AF083C03BF028C038F029C039F02AC092
:103694003AF02BC03BF0810E2C6EFF0E2D6E38C01D
:1036A4002EF039C02FF03AC030F03BC031F0180E84
:1036B40061EF1BF0D890313230322F322E32E82EA7
:1036C4005CEF1BF02E502C24366E000E2D20376E2E
:1036D40037BE76EF1BF0375009E1170E365CD8A0E1
:1036E40076EF1BF078EF1BF082EF1BF028C028F078
:1036F40029C029F02AC02AF02BC02BF045EF1CF07A
:1037040037BE87EF1BF089EF1BF0F9EF1BF036C0D3
:103714002CF0FF0E2D6EFF0E2E6E7F0E2F6E000E00
:10372400306E2C6698EF1BF0A0EF1BF03034303273
:103734002F322E322D322C2E93EF1BF02DC032F06F
:103744002EC033F02FC034F030C035F0325038146E
:103754002C6E335039142D6E34503A142E6E35506D
:103764003B142F6E2C502D102E102F10D8A4BDEF0B
:103774001BF0BFEF1BF0C1EF1BF078EF1BF038C05C
:103784002CF039C02DF03AC02EF03BC02FF0200EA3
:10379400D1EF1BF0D8902F322E322D322C32E82E5E
:1037A400CCEF1BF02C502D102E102F10D8B4DDEFC1
:1037B4001BF0DFEF1BF0E7EF1BF0325038263350DD
:1037C400392234503A2235503B22321C2C6E331CA1
:1037D4002D6E341C2E6E351C2F6E2C5038162D5029
:1037E40039162E503A162F503B163DEF1CF038C0B8
:1037F4002CF039C02DF03AC02EF03BC02FF0200E33
:1038040009EF1CF0D8902F322E322D322C32E82EB4
:1038140004EF1CF02C502D102E102F10D8A415EFEF
:103824001CF017EF1CF021EF1CF0000E386E000E98
:10383400396E000E3A6E000E3B6E3DEF1CF0D890D0
:1038440038342C6E39342D6E3A342E6E3B342F6E50
:103854002C502D102E102F10D8B433EF1CF035EF50
:103864001CF03DEF1CF0000E386E000E396E800E19
:103874003A6EBF0E3B6E38C028F039C029F03AC00A
:103884002AF03BC02BF0120021BE4BEF1CF04EEF90
:103894001CF0010E4FEF1CF0000E2A6E2A50D8B413
:1038A40056EF1CF058EF1CF060EF1CF0211E201E98
:1038B4001F1E1E6C000E1F22202221227EBE67EFD7
:1038C4001CF065EF1CF06DEF1CF0000E256E010E70
:1038D400246E71EF1CF07DC024F07EC025F09AC0E8
:1038E40026F09BC027F02A50D8B47BEF1CF07DEF64
:1038F4001CF094EF1CF02606D8A027062A50D8A462
:1039040086EF1CF088EF1CF08EEF1CF0000E236E87
:103914002B0E226E92EF1CF0000E236E2D0E226EE3
:1039240022C02AF0000E296E4F0E286E000E0101EF
:10393400B36FE1EF1CF02806D8A02906640E2824F2
:10394400D96E010E2920DA6E1EC001F01FC002F0EC
:1039540020C003F021C004F00A0E056E000E066EAE
:10396400000E076E000E086E4BEC24F001C00BF045
:1039740002C00CF0EAEC2BF00B50300FDF6E240683
:10398400D8A025062606D8A027061EC001F01FC011
:1039940002F020C003F021C004F00A0E056E000EF0
:1039A400066E000E076E000E086E41EC22F001C098
:1039B4001EF002C01FF003C020F004C021F029BE95
:1039C400ECEF1CF0295008E12804D8A0ECEF1CF01F
:1039D400EEEF1CF006EF1DF01E501F1020102110FA
:1039E400D8A4F7EF1CF0F9EF1CF09DEF1CF025BEF6
:1039F40006EF1DF0255006E12404D8B004EF1DF0B5
:103A040006EF1DF09DEF1CF02A50D8B40CEF1DF00A
:103A14000EEF1DF019EF1DF02806D8A02906640E3C
:103A24002824D96E010E2920DA6E2AC0DFFF1CC0BB
:103A340011F01DC012F0640E2824136E010E29200B
:103A4400146E26C015F027C016F0FDEC28F0120005
:103A5400000E136E000E116E000E126E0B500C1041
:103A6400D8B437EF1DF039EF1DF042EF1DF00D50C3
:103A74000E10D8A440EF1DF042EF1DF044EF1DF0EE
:103A840003EF1EF0000E136E13500B24016E000E94
:103A94000C20026E000E036E0EEC21F0132A030EAE
:103AA400136457EF1DF059EF1DF046EF1DF0000EA3
:103AB400136E13500B24016E000E0C20026E010EC7
:103AC400036E0EEC21F0000E116E11500B240F6EDC
:103AD400000E0C20106E040E0F24016E000E102038
:103AE400026E120E036E000E046EE9EC25F0120451
:103AF400D8A47FEF1DF081EF1DF0E7EF1DF00D0E50
:103B04000F6EFC0EE82EFED70F2EFCD711500B249F
:103B14000F6E000E0C20106E040E0F24016E000EAA
:103B24001020026E120E036E000E046EE9EC25F0F6
:103B34001204D8A4A0EF1DF0A2EF1DF0E7EF1DF0D2
:103B44001350040D010EF3240F6E100EF420106EAA
:103B540011500F26000E10220FC0F6FF10C0F7FF01
:103B64000DC0D9FF0EC0DAFF0800F5CFDFFF1150FA
:103B74000B240F6E000E0C20106E040E0F24016E29
:103B8400000E1020026E120E036E000E046EE9EC9D
:103B940025F0DFEF1DF011500B240F6E000E0C20EA
:103BA400106E040E0F24016E000E1020026E120E11
:103BB400036E000E046EE9EC25F01204D8B4E5EFB0
:103BC4001DF0E7EF1DF0CDEF1DF0112A030E116477
:103BD400EEEF1DF0F0EF1DF067EF1DF013500B2416
:103BE400016E000E0C20026E000E036E0EEC21F02E
:103BF400132A030E136401EF1EF003EF1EF05BEFB4
:103C04001DF01200096E0950D8B40BEF1EF00DEF31
:103C14001EF02FEF1EF004BE14EF1EF012EF1EF084
:103C24002FEF1EF001C005F002C006F003C007F03C
:103C340004C008F0051E061E071E081E052A000EF5
:103C440006220722082205C00BF006C00CF007C0AC
:103C54000DF008C00EF037EF1EF001C00BF002C0EB
:103C64000CF003C00DF004C00EF00150021003105C
:103C74000410D8A440EF1EF042EF1EF04CEF1EF0EB
:103C8400000E016E000E026E000E036E000E046E36
:103C9400DDEF1EF0960E0A6E56EF1EF00A2AD8903B
:103CA4000E320D320C320B32000E0B14056E000E68
:103CB4000C14066E000E0D14076EFE0E0E14086E24
:103CC4000550061007100810D8A46BEF1EF06DEF16
:103CD4001EF050EF1EF07BEF1EF00A2A010E0B2699
:103CE400000E0C220D220E22D8900E320D320C3210
:103CF4000B32000E0B14056E000E0C14066E000E33
:103D04000D14076EFF0E0E14086E055006100710F2
:103D14000810D8A490EF1EF092EF1EF06FEF1EF083
:103D24009AEF1EF00A06D8900B360C360D360E3676
:103D34000DBE9FEF1EF0A1EF1EF0A9EF1EF0020EC4
:103D44000A60A7EF1EF0A9EF1EF094EF1EF00AB070
:103D5400AEEF1EF0B0EF1EF0B1EF1EF00D9ED89046
:103D64000A320AC005F0066A076A086A05C008F044
:103D7400076A066A056A05500B1206500C120750B2
:103D84000D1208500E120950D8B4CBEF1EF0CDEF2F
:103D94001EF0D5EF1EF004BED4EF1EF0D2EF1EF0DD
:103DA400D5EF1EF00E8E0BC001F00CC002F00DC05A
:103DB40003F00EC004F01200010E136E0B500C1031
:103DC400D8B4E7EF1EF0E9EF1EF009EF1FF00BC0C7
:103DD400D9FF0CC0DAFFDF50070B0D6E050E0D6026
:103DE400F6EF1EF0F8EF1EF009EF1FF00BC0D9FF3D
:103DF4000CC0DAFFDF30E832E832070B0D6E070E35
:103E04000D6407EF1FF009EF1FF07BEF1FF0000EAA
:103E1400136E9CEF1FF00BC0D9FF0CC0DAFFDF302C
:103E2400E832E832070B0D6E010E0E6E0D2A1DEFFF
:103E34001FF0D8900E360D2E1BEF1FF00E50FF0A08
:103E44000F6E0BC0D9FF0CC0DAFFDF50070B106EEA
:103E54001050020DEA0EF324D96E000EF420DA6E2F
:103E6400DECF11F0DDCF12F011C0D9FF12C0DAFF9E
:103E74000F50DF160BC001F00CC002F00BC0D9FFCD
:103E84000CC0DAFF000EDFBE010E036E0EEC21F053
:103E9400136E9CEF1FF00BC0D9FF0CC0DAFFDF30AC
:103EA400E832E832070B0D6E010E0E6E0D2A5DEF3F
:103EB4001FF0D8900E360D2E5BEF1FF00BC0D9FF0C
:103EC4000CC0DAFFDF50070B0F6E0F50020DEA0E25
:103ED400F324D96E000EF420DA6EDECF10F0DDCFBD
:103EE40011F010C0D9FF11C0DAFF0E50DF129CEFA1
:103EF4001FF00BC0D9FF0CC0DAFFDFBC84EF1FF04A
:103F040087EF1FF0010E88EF1FF0000E0D6E0E6A92
:103F14000E50000AD8B491EF1FF009EF1FF00D50B6
:103F2400000AD8B40DEF1FF0010AD8B44DEF1FF00A
:103F340009EF1FF01350120001C00BF002C00CF087
:103F440005500610D8A4A9EF1FF0ABEF1FF0ADEF9A
:103F54001FF058EF20F00BC0D9FF0CC0DAFF03C0EC
:103F6400DFFF05500B24076E06500C20086EFF0E71
:103F74000724D96EFF0E0820DA6E03C0DFFF065057
:103F840007E1030E055CD8B0CAEF1FF0CCEF1FF0B9
:103F9400CEEF1FF058EF20F020EE01F00B50D926A1
:103FA4000C50DA2203C0DFFF20EE02F00B50D926BA
:103FB4000C50DA2203C0DFFF05500B24076E0650B5
:103FC4000C20086EFE0E0724D96EFF0E0820DA6E50
:103FD40003C0DFFF05500B24076E06500C20086E4B
:103FE400FD0E0724D96EFF0E0820DA6E03C0DFFF32
:103FF400065007E1070E055CD8B003EF20F005EF8B
:1040040020F007EF20F058EF20F020EE03F00B50E3
:10401400D9260C50DA2203C0DFFF05500B24076EAB
:1040240006500C20086EFC0E0724D96EFF0E0820E3
:10403400DA6E03C0DFFF065007E1090E055CD8B055
:1040440026EF20F028EF20F02AEF20F058EF20F0A0
:104054000BC007F00CC008F0071E081E074A082A08
:10406400030E0714096E0A6A09500B260A500C2223
:104074000950055E0A50065AFC0E0516FF0E061678
:104084004FEF20F00BC0D9FF0CC0DAFF03C0DFFFF5
:104094000506D8A006060B4A0C2A05500610D8A41B
:1040A40056EF20F058EF20F044EF20F01200010EFC
:1040B400186E14501510D8A462EF20F064EF20F0AD
:1040C40066EF20F00DEF21F014C00BF015C00CF0DA
:1040D400DEEC1EF00009D8B472EF20F074EF20F08B
:1040E40064EF20F0010E14240B6E000E15200C6EEC
:1040F400DEEC1EF00009D8B482EF20F084EF20F04B
:1041040064EF20F0000E196E19501424166E000E80
:104114001520176E020E16240B6E000E17200C6E5F
:10412400DEEC1EF00009D8A49AEF20F09CEF20F0FA
:10413400A0EF20F0000E186EA9EF20F0192A030E4C
:104144001964A7EF20F0A9EF20F086EF20F01A0EF3
:10415400166EF80EE82EFED7162EFCD700D014C02B
:104164000FF015C010F0380E116EEDEC27F0181694
:10417400070E166E7D0EE82EFED7162EFCD700F025
:1041840014C00FF015C010F0380E116EEDEC27F0CE
:104194001816320EE82EFED714C00FF015C010F01A
:1041A400380E116EEDEC27F0181614C00FF015C080
:1041B40010F0010E116EEDEC27F0181614C00FF07C
:1041C40015C010F0020E116EEDEC27F0181614C095
:1041D4000FF015C010F0060E116EEDEC27F0181656
:1041E40014C00FF015C010F00C0E116EEDEC27F09A
:1041F400181614C00FF015C010F0800E116EEDECFF
:1042040027F0181614C00FF015C010F0280E116E08
:10421400EDEC27F018161200010E0A6E0150021080
:10422400D8B417EF21F019EF21F039EF21F001C0D4
:10423400D9FF02C0DAFFDF50070B046E050E0460DD
:1042440026EF21F028EF21F039EF21F001C0D9FF4A
:1042540002C0DAFFDF30E832E832070B046E070EE3
:10426400046437EF21F039EF21F09CEF21F0000EC8
:104274000A6EB1EF21F001C0D9FF02C0DAFFDF30CE
:10428400E832E832070B046E010E056E042A4DEF86
:1042940021F0D8900536042E4BEF21F00550FF0A8B
:1042A400066E01C0D9FF02C0DAFFDF50070B076EAC
:1042B4000750020DE00EF324D96E000EF420DA6EDE
:1042C400DECF08F0DDCF09F008C0D9FF09C0DAFF5E
:1042D4000650DF16B1EF21F001C0D9FF02C0DAFFAA
:1042E400DF30E832E832070B046E010E056E042A53
:1042F4007EEF21F0D8900536042E7CEF21F001C02A
:10430400D9FF02C0DAFFDF50070B066E0650020D1C
:10431400E00EF324D96E000EF420DA6EDECF07F03F
:10432400DDCF08F007C0D9FF08C0DAFF0550DF125F
:10433400B1EF21F00350046E056A0550000AD8B4A9
:10434400A6EF21F039EF21F00450000AD8B43DEF74
:1043540021F0010AD8B46EEF21F039EF21F00A50B0
:1043640012007EBEBAEF21F0B8EF21F0C0EF21F0C9
:10437400000E256E010E246EC4EF21F07DC024F0E2
:104384007EC025F09AC022F09BC023F0000E276E59
:104394004F0E266E000E0101B36F0FEF22F02606BA
:1043A400D8A02706640E2624D96E010E2720DA6EC3
:1043B4001EC001F01FC002F020C003F021C004F0B1
:1043C4000A0E056E000E066E000E076E000E086ED5
:1043D40078EC28F00150300FDF6E2406D8A02506B3
:1043E4002206D8A023061EC001F01FC002F020C080
:1043F40003F021C004F00A0E056E000E066E000ED6
:10440400076E000E086E4CEC27F001C01EF002C0CF
:104414001FF003C020F004C021F026502710D8B4A8
:1044240016EF22F018EF22F030EF22F01E501F108A
:1044340020102110D8A421EF22F023EF22F0D1EF95
:1044440021F025BE30EF22F0255006E12404D8B037
:104454002EEF22F030EF22F0D1EF21F01CC011F04A
:104464001DC012F0640E2624136E010E2720146E54
:1044740022C015F023C016F0FDEC28F01200000E47
:104484000A6E08BE4AEF22F048EF22F054EF22F001
:10449400081E071E061E056C000E062207220822AF
:1044A400010E0A6E04BE5BEF22F059EF22F065EFB5
:1044B40022F0041E031E021E016C000E02220322BF
:1044C4000422010E0A1A000E0B6E000E0C6E000E72
:1044D4000D6E000E0E6E0550061007100810D8B4AD
:1044E40076EF22F078EF22F0AEEF22F0010E096EA3
:1044F40082EF22F0D8900536063607360836092AA8
:1045040008AE87EF22F089EF22F07CEF22F0D890FA
:104514000B360C360D360E360550015C065002582B
:104524000750035808500458D8A09BEF22F09DEF81
:1045340022F0A6EF22F00550015E0650025A075001
:10454400035A0850045A0B80D890083207320632B6
:104554000532092E89EF22F00A50D8B4B4EF22F0C4
:10456400B6EF22F0BEEF22F00E1E0D1E0C1E0B6CD9
:10457400000E0C220D220E220BC001F00CC002F022
:104584000DC003F00EC004F01200033404340A6EAC
:104594000A50D8A4D0EF22F0D2EF22F0DCEF22F0C0
:1045A400000E016E000E026E000E036E000E046E0D
:1045B40049EF23F001C005F002C006F003C007F084
:1045C40004C008F0200EECEF22F0D8900832073235
:1045D40006320532E82EE7EF22F00550096E038E0D
:1045E400FF0E0116FF0E0216FF0E0316000E041630
:1045F400960E0A5E0ABE03EF23F001EF23F019EFD3
:1046040023F00A50800A970FD8B00BEF23F00DEF78
:1046140023F00FEF23F0D2EF22F0D89004320332CC
:10462400023201320A3E0FEF23F031EF23F01F0E66
:104634000A641FEF23F021EF23F029EF23F0D2EFD8
:1046440022F0D89001360236033604360A060A50A0
:10465400D8A42FEF23F031EF23F023EF23F00950F8
:10466400D8B437EF23F039EF23F041EF23F0041EE1
:10467400031E021E016C000E02220322042201C04A
:1046840001F002C002F003C003F004C004F0120001
:10469400000E1A14226E000E1B14236E800E1C14BE
:1046A400246E7F0E1D14256E225023102410251015
:1046B400D8A45FEF23F061EF23F069EF23F0000E3D
:1046C4001A6E000E1B6E000E1C6E000E1D6E000E88
:1046D4001E14226E000E1F14236E800E2014246EEE
:1046E4007F0E2114256E2250231024102510D8A4E7
:1046F4007EEF23F080EF23F088EF23F0000E1E6E90
:10470400000E1F6E000E206E000E216E1DAE8DEF8A
:1047140023F08FEF23F098EF23F01A6C1B1ED8B010
:104724001B2A1C1ED8B01C2A800E1D5621AE9DEFDC
:1047340023F09FEF23F0A8EF23F01E6C1F1ED8B0C8
:104744001F2A201ED8B0202A800E2156000E1A1AC5
:10475400000E1B1A000E1C1A800E1D1A000E1E1AC3
:10476400000E1F1A000E201A800E211A1E501A5C09
:104774001F501B5820501C5821501D58D8B0C5EF4D
:1047840023F0C7EF23F0CAEF23F0D890CBEF23F048
:10479400D880120084C00BF085C00CF086C00DF0E8
:1047A40087C00EF001C00BF002C00CF003C00DF086
:1047B40004C00EF00BC005F00CC006F00DC007F0ED
:1047C4000EC008F0180EECEF23F0D8900832073230
:1047D40006320532E82EE7EF23F00550096E0A6A27
:1047E40009500A10D8A4F9EF23F0FBEF23F01BEFD4
:1047F40024F0D8900B34056E0C34066E0D34076E1D
:104804000E34086E0550061007100810D8A40DEFDA
:1048140024F00FEF24F015EF24F0000E026E020EC8
:10482400016E4AEF24F0000E026E030E016E4AEF91
:1048340024F009280A10D8A422EF24F024EF24F04D
:1048440046EF24F00BC005F00CC006F00DC007F0D5
:104854000EC008F0090ED89005360636073608361D
:10486400E82E2DEF24F00550061007100810D8B4D8
:104874003EEF24F041EF24F0010E42EF24F0000E4D
:10488400016E026A4AEF24F0000E026E040E016EFD
:104894001200000E0A6E04BE54EF24F052EF24F00E
:1048A4005EEF24F0041E031E021E016C000E0222A1
:1048B40003220422010E0A6E08BE65EF24F063EFA2
:1048C40024F06DEF24F0081E071E061E056C000E72
:1048D4000622072208220550061007100810D8B433
:1048E40076EF24F078EF24F0A8EF24F0010E096E9F
:1048F40082EF24F0D8900536063607360836092AA2
:1049040008AE87EF24F089EF24F07CEF24F0055003
:10491400015C065002580750035808500458D8A0A8
:1049240096EF24F098EF24F0A0EF24F00550015EF8
:104934000650025A0750035A0850045AD8900832B5
:10494400073206320532092E89EF24F00A50D8B412
:10495400AEEF24F0B0EF24F0B8EF24F0041E031EF1
:10496400021E016C000E02220322042201C001F087
:1049740002C002F003C003F004C004F012000350AC
:104984000410D8B4C8EF24F0CAEF24F0D3EF24F015
:1049940003500410D8A4D1EF24F0D3EF24F0D8EFBF
:1049A40024F00150E5EC2CF025EF25F020EE0AF080
:1049B4000350D9260450DA22DE50DE10D8B4E5EFD5
:1049C40024F0E7EF24F002EF25F020EE0AF0035084
:1049D400D9260450DA2210EE03F00350E1260450E5
:1049E400E222DE50E65CE650800A096EDE50800A60
:1049F4000958D8B000EF25F002EF25F025EF25F097
:104A040020EE03F00350D9260450DA22DECF05F05D
:104A1400DDCF06F003C0D9FF04C0DAFFDECF07F014
:104A2400DDCF08F005500724D96E06500820DA6E51
:104A340001C0DFFF20EE03F00350D9260450DA2230
:104A4400DE2A000EDD221200000E0F6E000E0E6E26
:104A540007C0D9FF08C0DAFFDECFF6FFDDCFF7FFCE
:104A64000800F5502A0AD8A43AEF25F03CEF25F0C7
:104A740070EF25F007C0D9FF08C0DAFFDE2A000E68
:104A8400DD2209C0D9FF0AC0DAFFDFCF0BF0020E26
:104A9400DE26DFCF0CF0000EDD220BC0D9FF0CC0E8
:104AA400DAFFDECF0EF0DDCF0FF084EF25F00EC07D
:104AB40001F00FC002F0000E046E0A0E036EA7ECA4
:104AC4002CF00D5001240E6E000E02200F6E07C054
:104AD400D9FF08C0DAFFDE2A000EDD2207C0D9FFA5
:104AE40008C0DAFFDECFF6FFDDCFF7FF0800F55090
:104AF400D00F0D6E090E0D6482EF25F084EF25F0C2
:104B040059EF25F00EC007F00FC008F01200000E98
:104B1400196E000E186E14501510D8A494EF25F0D9
:104B240096EF25F098EF25F0E8EF25F0000E196ECA
:104B3400195014240B6E000E15200C6EDEEC1EF0C2
:104B44000009D8B4A8EF25F0AAEF25F0ACEF25F0C2
:104B5400B0EF25F0010E186EB9EF25F0192A030EF7
:104B64001964B7EF25F0B9EF25F09AEF25F0185046
:104B7400D8A4BFEF25F0C1EF25F0E8EF25F0000E33
:104B8400196E19501424166E000E1520176E040E9B
:104B940016240B6E000E17200C6EDEEC1EF00009BE
:104BA400D8B4D7EF25F0D9EF25F0DBEF25F0DFEF10
:104BB40025F0010E186EE8EF25F0192A030E19648A
:104BC400E6EF25F0E8EF25F0C3EF25F012000150E1
:104BD4000210D8B4F0EF25F0F2EF25F012EF26F032
:104BE40001C0D9FF02C0DAFFDF50070B056E050EC6
:104BF4000560FFEF25F001EF26F012EF26F001C06B
:104C0400D9FF02C0DAFFDF30E832E832070B056E65
:104C1400070E056410EF26F012EF26F014EF26F0CD
:104C240045EF26F001C0D9FF02C0DAFFDF30E832D9
:104C3400E832070B056E01C0D9FF02C0DAFFDF506E
:104C4400070B066E0650020DC80EF324D96E010E32
:104C5400F420DA6EDECF07F0DDCF08F007C0D9FF0D
:104C640008C0DAFFDF50096E052A3BEF26F0D89022
:104C74000932052E39EF26F00950010B03C0D9FF84
:104C840004C0DAFFDF6E1200010E0E6E020E0B245A
:104C9400016E000E0C20026E0D50010B036E0EEC23
:104CA40021F00009D8B459EF26F05BEF26F09BEF12
:104CB40026F0030E0B24016E000E0C20026ED89019
:104CC4000D30010B036E0EEC21F00009D8B46DEF2A
:104CD40026F06FEF26F09BEF26F0040E0B24016EF6
:104CE400000E0C20026E0D40E8423F0B010B036ED8
:104CF4000EEC21F00009D8B482EF26F084EF26F000
:104D04009BEF26F0050E0B24016E000E0C20026EA4
:104D14000D38E8461F0B010B036E0EEC21F0000961
:104D2400D8B497EF26F099EF26F09BEF26F09DEF8D
:104D340026F0000E0E6E0E501200010E196E1606AD
:104D4400D8EF26F013C00FF014C010F01650800FE7
:104D5400116EEDEC27F01916F5EF26F013C00FF0E5
:104D640014C010F01650C00F116EEDEC27F0191698
:104D7400F5EF26F013C00FF014C010F01650940F86
:104D8400116EEDEC27F01916F5EF26F013C00FF0B5
:104D940014C010F01650D40F116EEDEC27F0191654
:104DA400F5EF26F0000E196EF5EF26F01550176E8C
:104DB400186A1850000AD8B4E2EF26F0D4EF26F0AF
:104DC4001750010AD8B4A4EF26F0030AD8B4B0EF00
:104DD40026F0010AD8B4BCEF26F0070AD8B4C8EF0D
:104DE40026F0D4EF26F019501200000E0114096EBB
:104DF400000E02140A6E800E03140B6E7F0E041450
:104E04000C6E09500A100B100C10D8A40CEF27F0EC
:104E14000EEF27F016EF27F0000E016E000E026E63
:104E2400000E036E000E046E000E0514096E000ED3
:104E340006140A6E800E07140B6E7F0E08140C6E97
:104E440009500A100B100C10D8A42BEF27F02DEFEB
:104E540027F035EF27F0000E056E000E066E000EEB
:104E6400076E000E086E055001180FE10650021877
:104E74000CE10750031809E108500418D8B445EFB1
:104E840027F047EF27F04AEF27F0D8904BEF27F0B1
:104E9400D8801200000E096E000E0A6E000E0B6E12
:104EA400000E0C6E0550061007100810D8B45DEF04
:104EB40027F05FEF27F095EF27F0010E0D6E69EFF5
:104EC40027F0D89005360636073608360D2A08AE80
:104ED4006EEF27F070EF27F063EF27F0D8900936D4
:104EE4000A360B360C360550015C06500258075042
:104EF400035808500458D8A082EF27F084EF27F015
:104F04008DEF27F00550015E0650025A0750035AF0
:104F14000850045A0980D890083207320632053204
:104F24000D2E70EF27F009C001F00AC002F00BC08B
:104F340003F00CC004F0120020EE11F0070EDE6A3C
:104F4400E806FDE201A0A9EF27F0ABEF27F0BBEFE5
:104F540027F0095011260A5012220B5013220C502C
:104F640014220D5015220E5016220F5017221050E5
:104F74001822D89009360A360B360C360D360E3602
:104F84000F361036D8900832073206320532043212
:104F940003320232013201500210031004100510D2
:104FA400061007100810D8A4DAEF27F0DCEF27F07A
:104FB400A4EF27F011C001F012C002F013C003F0F7
:104FC40014C004F015C005F016C006F017C007F0B1
:104FD40018C008F012000F501010D8A4F4EF27F0F6
:104FE400F6EF27F0FAEF27F0000E126E31EF28F0FB
:104FF4000FC001F010C002F0000E036E0EEC21F0A1
:10500400126E0FC00BF010C00CF011380F0B0D6EA8
:1050140046EC26F012160FC00BF010C00CF00AEC90
:105024002CF012160FC00BF010C00CF011C00DF0D4
:1050340046EC26F012160FC00BF010C00CF00AEC70
:105044002CF01216C80E00D0E82EFDD70FC001F0C8
:1050540010C002F0010E036E0EEC21F0126E12501D
:105064001200010E176E13501410D8A43CEF28F050
:105074003EEF28F05DEF28F0000E176E76EF28F073
:1050840013C00FF014C010F015C0F6FF16C0F7FFE0
:10509400000EF86E0F0EF76403D00800F55005D02B
:1050A400F6CFE9FFF7CFEAFFEF50116E3AEC29F0A3
:1050B4001716154A162A15C0F6FF16C0F7FF000E7C
:1050C400F86E0F0EF76403D00800F55005D0F6CF44
:1050D400E9FFF7CFEAFFEF500009D8A474EF28F0F6
:1050E40076EF28F042EF28F0175012000550061012
:1050F40007100810D8B481EF28F083EF28F0B3EF3D
:1051040028F0010E096E8DEF28F0D890053606368A
:1051140007360836092A08AE92EF28F094EF28F0F3
:1051240087EF28F00550015C0650025807500358D9
:1051340008500458D8A0A1EF28F0A3EF28F0ABEF53
:1051440028F00550015E0650025A0750035A0850D1
:10515400045AD8900832073206320532092E94EFE9
:1051640028F001C001F002C002F003C003F004C043
:1051740004F01200010E276E20502110D8A4C5EFB0
:1051840028F0C7EF28F0CBEF28F0000E276EFBEFD6
:1051940028F020C00FF021C010F02650080DF35065
:1051A400400F116EEDEC27F0000E286E20C00FF0BA
:1051B40021C010F028502424D96E000E2520DA6E68
:1051C400DF50116E3AEC29F0282A070E2864EDEF1F
:1051D40028F0EFEF28F0D8EF28F020C01AF021C013
:1051E4001BF022C01CF023C01DF026C01EF087EC6B
:1051F4002BF02750120016BE02EF29F004EF29F01D
:105204000AEF29F015C01AF016C01BF00EEF29F0B2
:10521400000E1B6E000E1A6E000E196E000E186E34
:1052240020EF29F0000E026E200E016E11C003F073
:1052340012C004F0C1EC24F0184A192A1A50185C60
:105244001950800A176E1B50800A1758D8A02DEFEA
:1052540029F02FEF29F014EF29F013C00AF014C03D
:105264000BF011C00CF012C00DF065EC2BF0120025
:105274000F501010D8A441EF29F043EF29F047EF65
:1052840029F0000E126E71EF29F00FC001F010C06A
:1052940002F0010E036E0EEC21F0126E0FC00BF043
:1052A40010C00CF011380F0B0D6E46EC26F01216E0
:1052B4000FC00BF010C00CF00AEC2CF012160FC04B
:1052C4000BF010C00CF011C00DF046EC26F01216D5
:1052D4000FC00BF010C00CF00AEC2CF01216125098
:1052E400120079EF29F0014A022A034A042A01C074
:1052F400D9FF02C0DAFFDF50056E03C0F6FF04C019
:10530400F7FF0800F5500518D8A48BEF29F08DEFAE
:1053140029F099EF29F001C0D9FF02C0DAFFDF506C
:10532400D8A497EF29F099EF29F075EF29F001C07F
:10533400D9FF02C0DAFFDF50056E03C0F6FF04C0D8
:10534400F7FF0800F550055C016E026AD8A002065A
:105354001200000E096E000E0A6E000E0B6E000E97
:105364000C6E01A0B8EF29F0BAEF29F0C2EF29F0D2
:105374000550092606500A2207500B2208500C2219
:10538400D8900536063607360836D89004320332EC
:10539400023201320150021003100410D8A4D5EFD8
:1053A40029F0D7EF29F0B3EF29F009C001F00AC0C2
:1053B40002F00BC003F00CC004F012008F0EF66E66
:1053C400590EF76E000EF86E01EEC8F010EE1AF0EA
:1053D4000900F5CFEEFFE550E150FAE1740EF66EE8
:1053E400590EF76E000EF86E00EEE0F010EE1BF0B2
:1053F4000900F5CFEEFFE550E150FAE101EE00F0CF
:10540400C80EEE6AE806FDE100EE80F0350EEE6AA5
:10541400E806FDE17F6A7E6A7D6A000EF86E00018F
:10542400C5EF0FF004BE23EF2AF00450031002105E
:1054340006E10104D8B021EF2AF023EF2AF03EEF71
:105444002AF001C005F002C006F003C007F004C052
:1054540008F0051E061E071E081E052A000E062259
:105464000722082205C001F006C002F007C003F0BD
:1054740008C004F046EF2AF001C001F002C002F0B7
:1054840003C003F004C004F01200010E0D6E200EE0
:105494000710096E000E08100A6E9F0E09240B6E89
:1054A400FF0E0A200C6E0C5009E11A0E0B5CD8A0FA
:1054B4005EEF2AF060EF2AF073EF2AF0D00E072493
:1054C400096EFF0E08200A6E0A5009E10A0E095CF3
:1054D400D8A06FEF2AF071EF2AF073EF2AF0000ED4
:1054E4000D6E0DC007F0086A1200010E206E1A50EE
:1054F4001B10D8B480EF2AF082EF2AF08BEF2AF049
:105504001E501F10D8A489EF2AF08BEF2AF08FEFDA
:105514002AF0000E206EA5EF2AF01AC013F01BC06B
:1055240014F01CC015F01DC016F09FEC26F02016D8
:105534001AC013F01BC014F01EC015F01FC016F0E3
:1055440033EC28F0201620501200C60E0001CA6F5A
:10555400000ECB6FC2C0CCF0C3C0CDF0000ED06F34
:10556400000ECF6F000ED76F000ED66FCC0EBC6F3F
:10557400000EBD6FC4C0BEF0C5C0BFF0CA0EC06F80
:10558400000EC16FCFEC2AF00001CF51C225D96EB5
:10559400D051C321DA6EDF6A1200BEC07BF0BFC0F7
:1055A4007CF0E3EF2AF0BCC071F0BDC072F07B0E5A
:1055B400736E000E746EC0C075F0C1C076F076ECE8
:1055C40012F07BC0F6FF7CC0F7FF0800F55000091D
:1055D400D8A4EFEF2AF0F1EF2AF0D5EF2AF0000E6D
:1055E4000001BD6F000EBC6F120003C009F004C0BF
:1055F4000AF001C007F002C008F011EF2BF009C057
:10560400D9FF0AC0DAFFDF500B6E094A0A2A07C025
:10561400D9FF08C0DAFF0BC0DFFF074A082A0506D6
:10562400D8A00606052806E10628D8A41CEF2BF00E
:105634001EEF2BF001EF2BF01200010E056E200E71
:1056440001180210D8B429EF2BF02BEF2BF03EEF0A
:105654002BF0F70E0124036EFF0E0220046E04509B
:1056640009E1050E035CD8A03AEF2BF03CEF2BF0D8
:105674003EEF2BF0000E056E05C001F0026A120029
:10568400000E1E1A000E1F1A000E201A800E211A78
:105694001AC001F01BC002F01CC003F01DC004F0CE
:1056A4001EC005F01FC006F020C007F021C008F09E
:1056B400FBEC14F001C01AF002C01BF003C01CF094
:1056C40004C01DF01200000E106E000E0F6E76EF77
:1056D4002BF00EC001F0026A0CC003F00DC004F000
:1056E400C1EC24F00F4A102A0F500A24D96E10502E
:1056F4000B20DA6EDF500E6E0E50D8A484EF2BF020
:1057040086EF2BF06BEF2BF01200010E1F6E1A5078
:105714001B10D8A490EF2BF092EF2BF094EF2BF00A
:10572400A8EF2BF01AC013F01BC014F01CC015F026
:105734001DC016F09FEC26F01F161AC00FF01BC0F8
:1057440010F01EC011F03AEC29F01F16120047C0E9
:1057540019F048C01AF049C01BF04AC01CF04BC0F5
:105764001DF04CC01EF0010E1F6E11EC0DF019C09F
:1057740047F01AC048F01BC049F01CC04AF01DC0D5
:105784004BF01EC04CF01FC04DF020C04EF0120074
:1057940003C005F004C006F001C007F002C008F021
:1057A40005C0F6FF06C0F7FF054A062A07C0D9FF61
:1057B40008C0DAFF074A082A0800F5CFDFFFDF50E8
:1057C400D8A4E7EF2BF0E9EF2BF0D2EF2BF0120087
:1057D4000CBEF7EF2BF00C5006E10B04D8B0F5EF3C
:1057E4002BF0F7EF2BF005EF2CF00BC00DF00CC0F5
:1057F4000EF00D1E0E1E0D4A0E2A0DC00BF00EC02B
:105804000CF009EF2CF00BC00BF00CC00CF01200E4
:10581400010E0D6E010E0B24016E000E0C20026EA3
:10582400010E036E0EEC21F00D1600D000D000F036
:10583400010E0B24016E000E0C20026E000E036E8E
:105844000EEC21F00D160D5012009F0E0524076E6C
:10585400FF0E0620086E085007E11A0E075CD8B048
:1058640036EF2CF038EF2CF03EEF2CF05F0E0514E1
:10587400056E066A42EF2CF005C005F006C006F07E
:105884001200200E0110036E000E0210046E9F0E13
:105894000324056EFF0E0420066E06500AE11A0E5C
:1058A400055CD8A058EF2CF05BEF2CF0010E5CEFF8
:1058B4002CF0000E016E026A120001500210031057
:1058C4000410D8B468EF2CF06AEF2CF072EF2CF0CF
:1058D400000E011A000E021A000E031A800E041A9A
:1058E40001C001F002C002F003C003F004C004F0E0
:1058F40012009F0E0124036EFF0E0220046E04505A
:105904000AE11A0E035CD8A08AEF2CF08DEF2CF07C
:10591400010E8EEF2CF0000E016E026A1200D00E02
:105924000124036EFF0E0220046E04500AE10A0EE5
:10593400035CD8A0A0EF2CF0A3EF2CF0010EA4EF91
:105944002CF0000E016E026A120001500302F3CF24
:1059540005F0F4CF06F001500402F350062602507D
:105964000302F350062605C001F006C002F012003F
:10597400890F8A0F8B0F8C0F8D0F920F930F940F3B
:10598400950F960F20131B232B333B800F810F821F
:105994000F830F840F00000A0011110E00020A1277
:0559A4001A626A727A2C
:1059AA00DA0E146E010E156E89EC25F0F50E146EE2
:1059BA00000E156E59EC20F01200D5EC2CF01200F6
:0259CA001200C9
:020000040030CA
:0E000000FF02091EFF8181FF0FC00FE00F40BD
:00000001FF
